{
  "_format": "hh-sol-artifact-1",
  "contractName": "UITShareMarketplace",
  "sourceName": "contracts/Marketplace/Marketplace.sol",
  "abi": [
    {
      "inputs": [
        {
          "internalType": "address",
          "name": "nftAddress_",
          "type": "address"
        },
        {
          "internalType": "uint256",
          "name": "feeRate_",
          "type": "uint256"
        },
        {
          "internalType": "address",
          "name": "feeRecipient_",
          "type": "address"
        }
      ],
      "stateMutability": "nonpayable",
      "type": "constructor"
    },
    {
      "inputs": [
        {
          "internalType": "address",
          "name": "owner",
          "type": "address"
        }
      ],
      "name": "OwnableInvalidOwner",
      "type": "error"
    },
    {
      "inputs": [
        {
          "internalType": "address",
          "name": "account",
          "type": "address"
        }
      ],
      "name": "OwnableUnauthorizedAccount",
      "type": "error"
    },
    {
      "inputs": [],
      "name": "ReentrancyGuardReentrantCall",
      "type": "error"
    },
    {
      "anonymous": false,
      "inputs": [
        {
          "indexed": true,
          "internalType": "address",
          "name": "donor",
          "type": "address"
        },
        {
          "indexed": true,
          "internalType": "address",
          "name": "recipient",
          "type": "address"
        },
        {
          "indexed": false,
          "internalType": "uint256",
          "name": "amount",
          "type": "uint256"
        }
      ],
      "name": "Donated",
      "type": "event"
    },
    {
      "anonymous": false,
      "inputs": [
        {
          "indexed": false,
          "internalType": "uint256",
          "name": "newRate",
          "type": "uint256"
        }
      ],
      "name": "FeeRateUpdated",
      "type": "event"
    },
    {
      "anonymous": false,
      "inputs": [
        {
          "indexed": true,
          "internalType": "address",
          "name": "newRecipient",
          "type": "address"
        }
      ],
      "name": "FeeRecipientUpdated",
      "type": "event"
    },
    {
      "anonymous": false,
      "inputs": [
        {
          "indexed": true,
          "internalType": "uint256",
          "name": "orderId",
          "type": "uint256"
        },
        {
          "indexed": true,
          "internalType": "address",
          "name": "seller",
          "type": "address"
        },
        {
          "indexed": true,
          "internalType": "uint256",
          "name": "tokenId",
          "type": "uint256"
        },
        {
          "indexed": false,
          "internalType": "uint256",
          "name": "amount",
          "type": "uint256"
        },
        {
          "indexed": false,
          "internalType": "uint256",
          "name": "price",
          "type": "uint256"
        }
      ],
      "name": "OrderAdded",
      "type": "event"
    },
    {
      "anonymous": false,
      "inputs": [
        {
          "indexed": true,
          "internalType": "uint256",
          "name": "orderId",
          "type": "uint256"
        }
      ],
      "name": "OrderCancelled",
      "type": "event"
    },
    {
      "anonymous": false,
      "inputs": [
        {
          "indexed": true,
          "internalType": "uint256",
          "name": "orderId",
          "type": "uint256"
        },
        {
          "indexed": true,
          "internalType": "address",
          "name": "seller",
          "type": "address"
        },
        {
          "indexed": true,
          "internalType": "address",
          "name": "buyer",
          "type": "address"
        },
        {
          "indexed": false,
          "internalType": "uint256",
          "name": "price",
          "type": "uint256"
        },
        {
          "indexed": false,
          "internalType": "uint256",
          "name": "marketplaceFee",
          "type": "uint256"
        },
        {
          "indexed": false,
          "internalType": "uint256",
          "name": "royaltyAmount",
          "type": "uint256"
        }
      ],
      "name": "OrderMatched",
      "type": "event"
    },
    {
      "anonymous": false,
      "inputs": [
        {
          "indexed": true,
          "internalType": "address",
          "name": "previousOwner",
          "type": "address"
        },
        {
          "indexed": true,
          "internalType": "address",
          "name": "newOwner",
          "type": "address"
        }
      ],
      "name": "OwnershipTransferred",
      "type": "event"
    },
    {
      "inputs": [],
      "name": "FEE_DENOMINATOR",
      "outputs": [
        {
          "internalType": "uint256",
          "name": "",
          "type": "uint256"
        }
      ],
      "stateMutability": "view",
      "type": "function"
    },
    {
      "inputs": [
        {
          "internalType": "uint256",
          "name": "tokenId_",
          "type": "uint256"
        },
        {
          "internalType": "uint256",
          "name": "amount_",
          "type": "uint256"
        },
        {
          "internalType": "uint256",
          "name": "price_",
          "type": "uint256"
        }
      ],
      "name": "addOrder",
      "outputs": [],
      "stateMutability": "nonpayable",
      "type": "function"
    },
    {
      "inputs": [
        {
          "internalType": "uint256",
          "name": "orderId_",
          "type": "uint256"
        }
      ],
      "name": "cancelOrder",
      "outputs": [],
      "stateMutability": "nonpayable",
      "type": "function"
    },
    {
      "inputs": [],
      "name": "donate",
      "outputs": [],
      "stateMutability": "payable",
      "type": "function"
    },
    {
      "inputs": [
        {
          "internalType": "uint256",
          "name": "tokenId",
          "type": "uint256"
        }
      ],
      "name": "donateToAuthor",
      "outputs": [],
      "stateMutability": "payable",
      "type": "function"
    },
    {
      "inputs": [
        {
          "internalType": "address",
          "name": "seller",
          "type": "address"
        }
      ],
      "name": "donateToSeller",
      "outputs": [],
      "stateMutability": "payable",
      "type": "function"
    },
    {
      "inputs": [
        {
          "internalType": "uint256",
          "name": "orderId_",
          "type": "uint256"
        }
      ],
      "name": "executeOrder",
      "outputs": [],
      "stateMutability": "payable",
      "type": "function"
    },
    {
      "inputs": [],
      "name": "feeRate",
      "outputs": [
        {
          "internalType": "uint256",
          "name": "",
          "type": "uint256"
        }
      ],
      "stateMutability": "view",
      "type": "function"
    },
    {
      "inputs": [],
      "name": "feeRecipient",
      "outputs": [
        {
          "internalType": "address",
          "name": "",
          "type": "address"
        }
      ],
      "stateMutability": "view",
      "type": "function"
    },
    {
      "inputs": [],
      "name": "nftContract",
      "outputs": [
        {
          "internalType": "contract IERC1155",
          "name": "",
          "type": "address"
        }
      ],
      "stateMutability": "view",
      "type": "function"
    },
    {
      "inputs": [
        {
          "internalType": "address",
          "name": "",
          "type": "address"
        },
        {
          "internalType": "address",
          "name": "",
          "type": "address"
        },
        {
          "internalType": "uint256[]",
          "name": "",
          "type": "uint256[]"
        },
        {
          "internalType": "uint256[]",
          "name": "",
          "type": "uint256[]"
        },
        {
          "internalType": "bytes",
          "name": "",
          "type": "bytes"
        }
      ],
      "name": "onERC1155BatchReceived",
      "outputs": [
        {
          "internalType": "bytes4",
          "name": "",
          "type": "bytes4"
        }
      ],
      "stateMutability": "pure",
      "type": "function"
    },
    {
      "inputs": [
        {
          "internalType": "address",
          "name": "",
          "type": "address"
        },
        {
          "internalType": "address",
          "name": "",
          "type": "address"
        },
        {
          "internalType": "uint256",
          "name": "",
          "type": "uint256"
        },
        {
          "internalType": "uint256",
          "name": "",
          "type": "uint256"
        },
        {
          "internalType": "bytes",
          "name": "",
          "type": "bytes"
        }
      ],
      "name": "onERC1155Received",
      "outputs": [
        {
          "internalType": "bytes4",
          "name": "",
          "type": "bytes4"
        }
      ],
      "stateMutability": "pure",
      "type": "function"
    },
    {
      "inputs": [
        {
          "internalType": "uint256",
          "name": "",
          "type": "uint256"
        }
      ],
      "name": "orders",
      "outputs": [
        {
          "internalType": "address",
          "name": "seller",
          "type": "address"
        },
        {
          "internalType": "uint256",
          "name": "tokenId",
          "type": "uint256"
        },
        {
          "internalType": "uint256",
          "name": "amount",
          "type": "uint256"
        },
        {
          "internalType": "uint256",
          "name": "price",
          "type": "uint256"
        },
        {
          "internalType": "bool",
          "name": "active",
          "type": "bool"
        }
      ],
      "stateMutability": "view",
      "type": "function"
    },
    {
      "inputs": [],
      "name": "owner",
      "outputs": [
        {
          "internalType": "address",
          "name": "",
          "type": "address"
        }
      ],
      "stateMutability": "view",
      "type": "function"
    },
    {
      "inputs": [],
      "name": "renounceOwnership",
      "outputs": [],
      "stateMutability": "nonpayable",
      "type": "function"
    },
    {
      "inputs": [
        {
          "internalType": "uint256",
          "name": "newRate",
          "type": "uint256"
        }
      ],
      "name": "setFeeRate",
      "outputs": [],
      "stateMutability": "nonpayable",
      "type": "function"
    },
    {
      "inputs": [
        {
          "internalType": "address",
          "name": "newRecipient",
          "type": "address"
        }
      ],
      "name": "setFeeRecipient",
      "outputs": [],
      "stateMutability": "nonpayable",
      "type": "function"
    },
    {
      "inputs": [
        {
          "internalType": "address",
          "name": "newOwner",
          "type": "address"
        }
      ],
      "name": "transferOwnership",
      "outputs": [],
      "stateMutability": "nonpayable",
      "type": "function"
    },
    {
      "inputs": [],
      "name": "withdrawFunds",
      "outputs": [],
      "stateMutability": "nonpayable",
      "type": "function"
    },
    {
      "stateMutability": "payable",
      "type": "receive"
    }
  ],
  "bytecode": "0x60a0604052600160025534801562000015575f80fd5b5060405162001a8f38038062001a8f833981016040819052620000389162000181565b33806200005f57604051631e4fbdf760e01b81525f60048201526024015b60405180910390fd5b6200006a8162000116565b5060017f9b779b17422d0df92223018b32b4d1fa46e071723d6817e2486d003becc55f00556001600160a01b038316620000e75760405162461bcd60e51b815260206004820152601360248201527f496e76616c6964204e4654206164647265737300000000000000000000000000604482015260640162000056565b6001600160a01b03928316608052600391909155600480546001600160a01b03191691909216179055620001bf565b5f80546001600160a01b038381166001600160a01b0319831681178455604051919092169283917f8be0079c531659141344cd1fd0a4f28419497f9722a3daafe3b4186f6b6457e09190a35050565b80516001600160a01b03811681146200017c575f80fd5b919050565b5f805f6060848603121562000194575f80fd5b6200019f8462000165565b925060208401519150620001b66040850162000165565b90509250925092565b608051611878620002175f395f81816103610152818161059701528181610667015281816107b5015281816109ca01528181610c6601528181610cbb01528181610dfd01528181610f640152610fb201526118785ff3fe608060405260043610610113575f3560e01c8063978bbdb91161009d578063d73792a911610062578063d73792a914610383578063e74b981b14610398578063ed88c68e146103b7578063f23a6e61146103bf578063f2fde38b146103ea575f80fd5b8063978bbdb91461024c578063a85c38ef1461026f578063ae98edc6146102f9578063bc197c811461030c578063d56d229d14610350575f80fd5b8063514fcac7116100e3578063514fcac7146101d7578063715018a6146101f65780637e5222a51461020a5780638da5cb5b1461021d57806394f6113414610239575f80fd5b806324600fc31461014957806333dac2971461015d57806345596e2e1461017c578063469048401461019b575f80fd5b3661014557341561014357604051348152309033905f805160206118038339815191529060200160405180910390a35b005b5f80fd5b348015610154575f80fd5b50610143610409565b348015610168575f80fd5b50610143610177366004611432565b610503565b348015610187575f80fd5b5061014361019636600461145b565b610862565b3480156101a6575f80fd5b506004546101ba906001600160a01b031681565b6040516001600160a01b0390911681526020015b60405180910390f35b3480156101e2575f80fd5b506101436101f136600461145b565b6108e6565b348015610201575f80fd5b50610143610a7e565b610143610218366004611486565b610a8f565b348015610228575f80fd5b505f546001600160a01b03166101ba565b61014361024736600461145b565b610b37565b348015610257575f80fd5b5061026160035481565b6040519081526020016101ce565b34801561027a575f80fd5b506102c561028936600461145b565b600160208190525f9182526040909120805491810154600282015460038301546004909301546001600160a01b03909416939192909160ff1685565b604080516001600160a01b03909616865260208601949094529284019190915260608301521515608082015260a0016101ce565b61014361030736600461145b565b610f0f565b348015610317575f80fd5b506103376103263660046115d6565b63bc197c8160e01b95945050505050565b6040516001600160e01b031990911681526020016101ce565b34801561035b575f80fd5b506101ba7f000000000000000000000000000000000000000000000000000000000000000081565b34801561038e575f80fd5b5061026161271081565b3480156103a3575f80fd5b506101436103b2366004611486565b6110bd565b610143611156565b3480156103ca575f80fd5b506103376103d936600461167d565b63f23a6e6160e01b95945050505050565b3480156103f5575f80fd5b50610143610404366004611486565b6111bb565b6104116111f5565b610419611221565b47806104575760405162461bcd60e51b81526020600482015260086024820152674e6f2066756e647360c01b60448201526064015b60405180910390fd5b5f80546040516001600160a01b039091169083908381818185875af1925050503d805f81146104a1576040519150601f19603f3d011682016040523d82523d5f602084013e6104a6565b606091505b50509050806104e95760405162461bcd60e51b815260206004820152600f60248201526e151c985b9cd9995c8819985a5b1959608a1b604482015260640161044e565b505061050160015f8051602061182383398151915255565b565b5f821161053f5760405162461bcd60e51b815260206004820152600a6024820152690416d6f756e74203e20360b41b604482015260640161044e565b5f811161057a5760405162461bcd60e51b815260206004820152600960248201526805072696365203e20360bc1b604482015260640161044e565b604051627eeac760e11b81523360048201526024810184905282907f00000000000000000000000000000000000000000000000000000000000000006001600160a01b03169062fdd58e90604401602060405180830381865afa1580156105e3573d5f803e3d5ffd5b505050506040513d601f19601f8201168201806040525081019061060791906116e1565b101561064c5760405162461bcd60e51b8152602060048201526014602482015273496e73756666696369656e742062616c616e636560601b604482015260640161044e565b60405163e985e9c560e01b81523360048201523060248201527f00000000000000000000000000000000000000000000000000000000000000006001600160a01b03169063e985e9c590604401602060405180830381865afa1580156106b4573d5f803e3d5ffd5b505050506040513d601f19601f820116820180604052508101906106d891906116f8565b6107135760405162461bcd60e51b815260206004820152600c60248201526b139bdd08185c1c1c9bdd995960a21b604482015260640161044e565b600280545f91826107238361172b565b909155506040805160a081018252338082526020808301898152838501898152606085018981526001608087018181525f8a81529582905294889020965187546001600160a01b0319166001600160a01b039182161788559351908701559051600286015551600385015590516004938401805460ff19169115159190911790559251637921219560e11b81529394507f00000000000000000000000000000000000000000000000000000000000000009092169263f242432a926107f092909130918a918a9101611743565b5f604051808303815f87803b158015610807575f80fd5b505af1158015610819573d5f803e3d5ffd5b5050604080518681526020810186905287935033925084917ff252fd623bf7176b69e3965314544bee4a54ae2d0b23850aa49ffd7d753a7315910160405180910390a450505050565b61086a6111f5565b6107d08111156108ab5760405162461bcd60e51b815260206004820152600c60248201526b08ccaca40e8dede40d0d2ced60a31b604482015260640161044e565b60038190556040518181527f208f1b468d3d61f0f085e975bd9d04367c930d599642faad06695229f3eadcd89060200160405180910390a150565b6108ee611221565b5f818152600160205260409020600481015460ff168015610918575080546001600160a01b031633145b6109645760405162461bcd60e51b815260206004820152601860248201527f556e617574686f72697a6564206f7220696e6163746976650000000000000000604482015260640161044e565b6004808201805460ff199081169091556001808401546002808601545f8881526020859052604080822080546001600160a01b0319168155958601829055928501819055600385015592850180549094169093559151637921219560e11b8152919290917f00000000000000000000000000000000000000000000000000000000000000006001600160a01b03169163f242432a91610a0b91309133918891889101611743565b5f604051808303815f87803b158015610a22575f80fd5b505af1158015610a34573d5f803e3d5ffd5b50506040518692507f61b9399f2f0f32ca39ce8d7be32caed5ec22fe07a6daba3a467ed479ec60658291505f90a2505050610a7b60015f8051602061182383398151915255565b50565b610a866111f5565b6105015f61123c565b610a97611221565b5f34118015610aae57506001600160a01b03811615155b610aea5760405162461bcd60e51b815260206004820152600d60248201526c125b9d985b1a59081a5b9c1d5d609a1b604482015260640161044e565b610af4813461128b565b6040513481526001600160a01b0382169033905f805160206118038339815191529060200160405180910390a3610a7b60015f8051602061182383398151915255565b610b3f611221565b5f818152600160205260409020600481015460ff16610b915760405162461bcd60e51b815260206004820152600e60248201526d4f7264657220696e61637469766560901b604482015260640161044e565b8060030154341015610bd85760405162461bcd60e51b815260206004820152601060248201526f092dce6eaccccd2c6d2cadce8408aa8960831b604482015260640161044e565b8054336001600160a01b0390911603610c275760405162461bcd60e51b815260206004820152601160248201527053656c6c65722063616e6e6f742062757960781b604482015260640161044e565b60048101805460ff1916905560038082015490545f9061271090610c4b908461177a565b610c559190611791565b90505f80610c936001600160a01b037f00000000000000000000000000000000000000000000000000000000000000001663152a902d60e11b61133e565b15610d3057600185015460405163152a902d60e11b81526004810191909152602481018590527f00000000000000000000000000000000000000000000000000000000000000006001600160a01b031690632a55205a906044016040805180830381865afa158015610d07573d5f803e3d5ffd5b505050506040513d601f19601f82011682018060405250810190610d2b91906117b0565b925090505b610d3a82846117dc565b841015610d7d5760405162461bcd60e51b8152602060048201526011602482015270466565732065786365656420707269636560781b604482015260640161044e565b600454610d93906001600160a01b03168461128b565b610d9d818361128b565b8454610dc6906001600160a01b031683610db786886117ef565b610dc191906117ef565b61128b565b83341115610ddc57610ddc33610dc186346117ef565b60018501546002860154604051637921219560e11b81526001600160a01b037f0000000000000000000000000000000000000000000000000000000000000000169263f242432a92610e3692309233929091600401611743565b5f604051808303815f87803b158015610e4d575f80fd5b505af1158015610e5f573d5f803e3d5ffd5b5050865460408051888152602081018890529081018690523393506001600160a01b03909116915088907f834a5ca2fecc4c3bddb180e1bbb4f84a09d86c8d8aa07d8991bcca750005b0399060600160405180910390a45050505f838152600160208190526040822080546001600160a01b0319168155908101829055600281018290556003810191909155600401805460ff1916905550610a7b905060015f8051602061182383398151915255565b610f17611221565b5f3411610f565760405162461bcd60e51b815260206004820152600d60248201526c09aeae6e840e6cadcc8408aa89609b1b604482015260640161044e565b5f610f916001600160a01b037f00000000000000000000000000000000000000000000000000000000000000001663152a902d60e11b61133e565b156110265760405163152a902d60e11b8152600481018390523460248201527f00000000000000000000000000000000000000000000000000000000000000006001600160a01b031690632a55205a906044016040805180830381865afa158015610ffe573d5f803e3d5ffd5b505050506040513d601f19601f8201168201806040525081019061102291906117b0565b5090505b6001600160a01b03811661106f5760405162461bcd60e51b815260206004820152601060248201526f105d5d1a1bdc881b9bdd08199bdd5b9960821b604482015260640161044e565b611079813461128b565b6040513481526001600160a01b0382169033905f805160206118038339815191529060200160405180910390a350610a7b60015f8051602061182383398151915255565b6110c56111f5565b6001600160a01b03811661110d5760405162461bcd60e51b815260206004820152600f60248201526e496e76616c6964206164647265737360881b604482015260640161044e565b600480546001600160a01b0319166001600160a01b0383169081179091556040517f7a7b5a0a132f9e0581eb8527f66eae9ee89c2a3e79d4ac7e41a1f1f4d48a7fc2905f90a250565b5f34116111955760405162461bcd60e51b815260206004820152600d60248201526c09aeae6e840e6cadcc8408aa89609b1b604482015260640161044e565b604051348152309033905f805160206118038339815191529060200160405180910390a3565b6111c36111f5565b6001600160a01b0381166111ec57604051631e4fbdf760e01b81525f600482015260240161044e565b610a7b8161123c565b5f546001600160a01b031633146105015760405163118cdaa760e01b815233600482015260240161044e565b611229611362565b60025f8051602061182383398151915255565b5f80546001600160a01b038381166001600160a01b0319831681178455604051919092169283917f8be0079c531659141344cd1fd0a4f28419497f9722a3daafe3b4186f6b6457e09190a35050565b5f811180156112a257506001600160a01b03821615155b1561133a575f826001600160a01b0316826040515f6040518083038185875af1925050503d805f81146112f0576040519150601f19603f3d011682016040523d82523d5f602084013e6112f5565b606091505b50509050806113385760405162461bcd60e51b815260206004820152600f60248201526e151c985b9cd9995c8819985a5b1959608a1b604482015260640161044e565b505b5050565b5f61134883611391565b8015611359575061135983836113da565b90505b92915050565b5f805160206118238339815191525460020361050157604051633ee5aeb560e01b815260040160405180910390fd5b5f6113a3826301ffc9a760e01b6113da565b156113d3575f806113bc846001600160e01b03196113fe565b915091508180156113cb575080155b949350505050565b505f919050565b5f805f6113e785856113fe565b915091508180156113f55750805b95945050505050565b6301ffc9a760e01b5f818152600483905290819060208260248188617530fa92505f511515601f3d11169150509250929050565b5f805f60608486031215611444575f80fd5b505081359360208301359350604090920135919050565b5f6020828403121561146b575f80fd5b5035919050565b6001600160a01b0381168114610a7b575f80fd5b5f60208284031215611496575f80fd5b81356114a181611472565b9392505050565b634e487b7160e01b5f52604160045260245ffd5b604051601f8201601f1916810167ffffffffffffffff811182821017156114e5576114e56114a8565b604052919050565b5f82601f8301126114fc575f80fd5b8135602067ffffffffffffffff821115611518576115186114a8565b8160051b6115278282016114bc565b9283528481018201928281019087851115611540575f80fd5b83870192505b8483101561155f57823582529183019190830190611546565b979650505050505050565b5f82601f830112611579575f80fd5b813567ffffffffffffffff811115611593576115936114a8565b6115a6601f8201601f19166020016114bc565b8181528460208386010111156115ba575f80fd5b816020850160208301375f918101602001919091529392505050565b5f805f805f60a086880312156115ea575f80fd5b85356115f581611472565b9450602086013561160581611472565b9350604086013567ffffffffffffffff80821115611621575f80fd5b61162d89838a016114ed565b94506060880135915080821115611642575f80fd5b61164e89838a016114ed565b93506080880135915080821115611663575f80fd5b506116708882890161156a565b9150509295509295909350565b5f805f805f60a08688031215611691575f80fd5b853561169c81611472565b945060208601356116ac81611472565b93506040860135925060608601359150608086013567ffffffffffffffff8111156116d5575f80fd5b6116708882890161156a565b5f602082840312156116f1575f80fd5b5051919050565b5f60208284031215611708575f80fd5b815180151581146114a1575f80fd5b634e487b7160e01b5f52601160045260245ffd5b5f6001820161173c5761173c611717565b5060010190565b6001600160a01b0394851681529290931660208301526040820152606081019190915260a0608082018190525f9082015260c00190565b808202811582820484141761135c5761135c611717565b5f826117ab57634e487b7160e01b5f52601260045260245ffd5b500490565b5f80604083850312156117c1575f80fd5b82516117cc81611472565b6020939093015192949293505050565b8082018082111561135c5761135c611717565b8181038181111561135c5761135c61171756fe4dfff917e1fbb261a082e98cc7d43029621f6a6eb05ff3fef1510d5f1eb4857c9b779b17422d0df92223018b32b4d1fa46e071723d6817e2486d003becc55f00a264697066735822122063e8dc682471d7cc99dd3e1dbb40d0c6ef7d7c9c68aed5eb6e62fab9ce98480e64736f6c63430008180033",
  "linkReferences": {},
  "deployedLinkReferences": {}
}