{
  "_format": "hh-sol-artifact-1",
  "contractName": "UITShareNFT",
  "sourceName": "contracts/NFT/NFT.sol",
  "abi": [
    {
      "inputs": [],
      "stateMutability": "nonpayable",
      "type": "constructor"
    },
    {
      "inputs": [
        {
          "internalType": "address",
          "name": "sender",
          "type": "address"
        },
        {
          "internalType": "uint256",
          "name": "balance",
          "type": "uint256"
        },
        {
          "internalType": "uint256",
          "name": "needed",
          "type": "uint256"
        },
        {
          "internalType": "uint256",
          "name": "tokenId",
          "type": "uint256"
        }
      ],
      "name": "ERC1155InsufficientBalance",
      "type": "error"
    },
    {
      "inputs": [
        {
          "internalType": "address",
          "name": "approver",
          "type": "address"
        }
      ],
      "name": "ERC1155InvalidApprover",
      "type": "error"
    },
    {
      "inputs": [
        {
          "internalType": "uint256",
          "name": "idsLength",
          "type": "uint256"
        },
        {
          "internalType": "uint256",
          "name": "valuesLength",
          "type": "uint256"
        }
      ],
      "name": "ERC1155InvalidArrayLength",
      "type": "error"
    },
    {
      "inputs": [
        {
          "internalType": "address",
          "name": "operator",
          "type": "address"
        }
      ],
      "name": "ERC1155InvalidOperator",
      "type": "error"
    },
    {
      "inputs": [
        {
          "internalType": "address",
          "name": "receiver",
          "type": "address"
        }
      ],
      "name": "ERC1155InvalidReceiver",
      "type": "error"
    },
    {
      "inputs": [
        {
          "internalType": "address",
          "name": "sender",
          "type": "address"
        }
      ],
      "name": "ERC1155InvalidSender",
      "type": "error"
    },
    {
      "inputs": [
        {
          "internalType": "address",
          "name": "operator",
          "type": "address"
        },
        {
          "internalType": "address",
          "name": "owner",
          "type": "address"
        }
      ],
      "name": "ERC1155MissingApprovalForAll",
      "type": "error"
    },
    {
      "inputs": [
        {
          "internalType": "uint256",
          "name": "numerator",
          "type": "uint256"
        },
        {
          "internalType": "uint256",
          "name": "denominator",
          "type": "uint256"
        }
      ],
      "name": "ERC2981InvalidDefaultRoyalty",
      "type": "error"
    },
    {
      "inputs": [
        {
          "internalType": "address",
          "name": "receiver",
          "type": "address"
        }
      ],
      "name": "ERC2981InvalidDefaultRoyaltyReceiver",
      "type": "error"
    },
    {
      "inputs": [
        {
          "internalType": "uint256",
          "name": "tokenId",
          "type": "uint256"
        },
        {
          "internalType": "uint256",
          "name": "numerator",
          "type": "uint256"
        },
        {
          "internalType": "uint256",
          "name": "denominator",
          "type": "uint256"
        }
      ],
      "name": "ERC2981InvalidTokenRoyalty",
      "type": "error"
    },
    {
      "inputs": [
        {
          "internalType": "uint256",
          "name": "tokenId",
          "type": "uint256"
        },
        {
          "internalType": "address",
          "name": "receiver",
          "type": "address"
        }
      ],
      "name": "ERC2981InvalidTokenRoyaltyReceiver",
      "type": "error"
    },
    {
      "inputs": [
        {
          "internalType": "address",
          "name": "owner",
          "type": "address"
        }
      ],
      "name": "OwnableInvalidOwner",
      "type": "error"
    },
    {
      "inputs": [
        {
          "internalType": "address",
          "name": "account",
          "type": "address"
        }
      ],
      "name": "OwnableUnauthorizedAccount",
      "type": "error"
    },
    {
      "anonymous": false,
      "inputs": [
        {
          "indexed": true,
          "internalType": "address",
          "name": "account",
          "type": "address"
        },
        {
          "indexed": true,
          "internalType": "address",
          "name": "operator",
          "type": "address"
        },
        {
          "indexed": false,
          "internalType": "bool",
          "name": "approved",
          "type": "bool"
        }
      ],
      "name": "ApprovalForAll",
      "type": "event"
    },
    {
      "anonymous": false,
      "inputs": [
        {
          "indexed": true,
          "internalType": "uint256",
          "name": "tokenId",
          "type": "uint256"
        },
        {
          "indexed": true,
          "internalType": "address",
          "name": "burner",
          "type": "address"
        },
        {
          "indexed": false,
          "internalType": "uint256",
          "name": "amount",
          "type": "uint256"
        }
      ],
      "name": "DocumentBurned",
      "type": "event"
    },
    {
      "anonymous": false,
      "inputs": [
        {
          "indexed": true,
          "internalType": "uint256",
          "name": "tokenId",
          "type": "uint256"
        },
        {
          "indexed": true,
          "internalType": "address",
          "name": "creator",
          "type": "address"
        },
        {
          "indexed": false,
          "internalType": "uint256",
          "name": "amount",
          "type": "uint256"
        },
        {
          "indexed": false,
          "internalType": "string",
          "name": "tokenURI",
          "type": "string"
        }
      ],
      "name": "DocumentMinted",
      "type": "event"
    },
    {
      "anonymous": false,
      "inputs": [
        {
          "indexed": true,
          "internalType": "address",
          "name": "previousOwner",
          "type": "address"
        },
        {
          "indexed": true,
          "internalType": "address",
          "name": "newOwner",
          "type": "address"
        }
      ],
      "name": "OwnershipTransferred",
      "type": "event"
    },
    {
      "anonymous": false,
      "inputs": [
        {
          "indexed": true,
          "internalType": "address",
          "name": "operator",
          "type": "address"
        },
        {
          "indexed": true,
          "internalType": "address",
          "name": "from",
          "type": "address"
        },
        {
          "indexed": true,
          "internalType": "address",
          "name": "to",
          "type": "address"
        },
        {
          "indexed": false,
          "internalType": "uint256[]",
          "name": "ids",
          "type": "uint256[]"
        },
        {
          "indexed": false,
          "internalType": "uint256[]",
          "name": "values",
          "type": "uint256[]"
        }
      ],
      "name": "TransferBatch",
      "type": "event"
    },
    {
      "anonymous": false,
      "inputs": [
        {
          "indexed": true,
          "internalType": "address",
          "name": "operator",
          "type": "address"
        },
        {
          "indexed": true,
          "internalType": "address",
          "name": "from",
          "type": "address"
        },
        {
          "indexed": true,
          "internalType": "address",
          "name": "to",
          "type": "address"
        },
        {
          "indexed": false,
          "internalType": "uint256",
          "name": "id",
          "type": "uint256"
        },
        {
          "indexed": false,
          "internalType": "uint256",
          "name": "value",
          "type": "uint256"
        }
      ],
      "name": "TransferSingle",
      "type": "event"
    },
    {
      "anonymous": false,
      "inputs": [
        {
          "indexed": false,
          "internalType": "string",
          "name": "value",
          "type": "string"
        },
        {
          "indexed": true,
          "internalType": "uint256",
          "name": "id",
          "type": "uint256"
        }
      ],
      "name": "URI",
      "type": "event"
    },
    {
      "inputs": [],
      "name": "MAX_SUPPLY_LIMIT",
      "outputs": [
        {
          "internalType": "uint256",
          "name": "",
          "type": "uint256"
        }
      ],
      "stateMutability": "view",
      "type": "function"
    },
    {
      "inputs": [
        {
          "internalType": "address",
          "name": "account",
          "type": "address"
        },
        {
          "internalType": "uint256",
          "name": "id",
          "type": "uint256"
        }
      ],
      "name": "balanceOf",
      "outputs": [
        {
          "internalType": "uint256",
          "name": "",
          "type": "uint256"
        }
      ],
      "stateMutability": "view",
      "type": "function"
    },
    {
      "inputs": [
        {
          "internalType": "address[]",
          "name": "accounts",
          "type": "address[]"
        },
        {
          "internalType": "uint256[]",
          "name": "ids",
          "type": "uint256[]"
        }
      ],
      "name": "balanceOfBatch",
      "outputs": [
        {
          "internalType": "uint256[]",
          "name": "",
          "type": "uint256[]"
        }
      ],
      "stateMutability": "view",
      "type": "function"
    },
    {
      "inputs": [
        {
          "internalType": "address",
          "name": "account",
          "type": "address"
        },
        {
          "internalType": "uint256",
          "name": "id",
          "type": "uint256"
        },
        {
          "internalType": "uint256",
          "name": "value",
          "type": "uint256"
        }
      ],
      "name": "burn",
      "outputs": [],
      "stateMutability": "nonpayable",
      "type": "function"
    },
    {
      "inputs": [
        {
          "internalType": "uint256",
          "name": "",
          "type": "uint256"
        }
      ],
      "name": "creators",
      "outputs": [
        {
          "internalType": "address",
          "name": "",
          "type": "address"
        }
      ],
      "stateMutability": "view",
      "type": "function"
    },
    {
      "inputs": [],
      "name": "getCurrentTokenId",
      "outputs": [
        {
          "internalType": "uint256",
          "name": "",
          "type": "uint256"
        }
      ],
      "stateMutability": "view",
      "type": "function"
    },
    {
      "inputs": [
        {
          "internalType": "address",
          "name": "account",
          "type": "address"
        },
        {
          "internalType": "address",
          "name": "operator",
          "type": "address"
        }
      ],
      "name": "isApprovedForAll",
      "outputs": [
        {
          "internalType": "bool",
          "name": "",
          "type": "bool"
        }
      ],
      "stateMutability": "view",
      "type": "function"
    },
    {
      "inputs": [
        {
          "internalType": "uint256",
          "name": "amount_",
          "type": "uint256"
        },
        {
          "internalType": "string",
          "name": "tokenURI_",
          "type": "string"
        },
        {
          "internalType": "bytes",
          "name": "data_",
          "type": "bytes"
        }
      ],
      "name": "mint",
      "outputs": [
        {
          "internalType": "uint256",
          "name": "",
          "type": "uint256"
        }
      ],
      "stateMutability": "nonpayable",
      "type": "function"
    },
    {
      "inputs": [],
      "name": "owner",
      "outputs": [
        {
          "internalType": "address",
          "name": "",
          "type": "address"
        }
      ],
      "stateMutability": "view",
      "type": "function"
    },
    {
      "inputs": [],
      "name": "renounceOwnership",
      "outputs": [],
      "stateMutability": "nonpayable",
      "type": "function"
    },
    {
      "inputs": [
        {
          "internalType": "uint256",
          "name": "tokenId",
          "type": "uint256"
        },
        {
          "internalType": "uint256",
          "name": "salePrice",
          "type": "uint256"
        }
      ],
      "name": "royaltyInfo",
      "outputs": [
        {
          "internalType": "address",
          "name": "receiver",
          "type": "address"
        },
        {
          "internalType": "uint256",
          "name": "amount",
          "type": "uint256"
        }
      ],
      "stateMutability": "view",
      "type": "function"
    },
    {
      "inputs": [
        {
          "internalType": "address",
          "name": "from",
          "type": "address"
        },
        {
          "internalType": "address",
          "name": "to",
          "type": "address"
        },
        {
          "internalType": "uint256[]",
          "name": "ids",
          "type": "uint256[]"
        },
        {
          "internalType": "uint256[]",
          "name": "values",
          "type": "uint256[]"
        },
        {
          "internalType": "bytes",
          "name": "data",
          "type": "bytes"
        }
      ],
      "name": "safeBatchTransferFrom",
      "outputs": [],
      "stateMutability": "nonpayable",
      "type": "function"
    },
    {
      "inputs": [
        {
          "internalType": "address",
          "name": "from",
          "type": "address"
        },
        {
          "internalType": "address",
          "name": "to",
          "type": "address"
        },
        {
          "internalType": "uint256",
          "name": "id",
          "type": "uint256"
        },
        {
          "internalType": "uint256",
          "name": "value",
          "type": "uint256"
        },
        {
          "internalType": "bytes",
          "name": "data",
          "type": "bytes"
        }
      ],
      "name": "safeTransferFrom",
      "outputs": [],
      "stateMutability": "nonpayable",
      "type": "function"
    },
    {
      "inputs": [
        {
          "internalType": "address",
          "name": "operator",
          "type": "address"
        },
        {
          "internalType": "bool",
          "name": "approved",
          "type": "bool"
        }
      ],
      "name": "setApprovalForAll",
      "outputs": [],
      "stateMutability": "nonpayable",
      "type": "function"
    },
    {
      "inputs": [
        {
          "internalType": "bytes4",
          "name": "interfaceId",
          "type": "bytes4"
        }
      ],
      "name": "supportsInterface",
      "outputs": [
        {
          "internalType": "bool",
          "name": "",
          "type": "bool"
        }
      ],
      "stateMutability": "view",
      "type": "function"
    },
    {
      "inputs": [
        {
          "internalType": "uint256",
          "name": "",
          "type": "uint256"
        }
      ],
      "name": "totalSupply",
      "outputs": [
        {
          "internalType": "uint256",
          "name": "",
          "type": "uint256"
        }
      ],
      "stateMutability": "view",
      "type": "function"
    },
    {
      "inputs": [
        {
          "internalType": "address",
          "name": "newOwner",
          "type": "address"
        }
      ],
      "name": "transferOwnership",
      "outputs": [],
      "stateMutability": "nonpayable",
      "type": "function"
    },
    {
      "inputs": [
        {
          "internalType": "uint256",
          "name": "tokenId",
          "type": "uint256"
        }
      ],
      "name": "uri",
      "outputs": [
        {
          "internalType": "string",
          "name": "",
          "type": "string"
        }
      ],
      "stateMutability": "view",
      "type": "function"
    }
  ],
  "bytecode": "0x608060405234801562000010575f80fd5b5060408051602081019091525f815233906200002c816200006d565b506001600160a01b0381166200005b57604051631e4fbdf760e01b81525f600482015260240160405180910390fd5b62000066816200007f565b506200023a565b60026200007b82826200016e565b5050565b600580546001600160a01b038381166001600160a01b0319831681179093556040519116919082907f8be0079c531659141344cd1fd0a4f28419497f9722a3daafe3b4186f6b6457e0905f90a35050565b634e487b7160e01b5f52604160045260245ffd5b600181811c90821680620000f957607f821691505b6020821081036200011857634e487b7160e01b5f52602260045260245ffd5b50919050565b601f8211156200016957805f5260205f20601f840160051c81016020851015620001455750805b601f840160051c820191505b8181101562000166575f815560010162000151565b50505b505050565b81516001600160401b038111156200018a576200018a620000d0565b620001a2816200019b8454620000e4565b846200011e565b602080601f831160018114620001d8575f8415620001c05750858301515b5f19600386901b1c1916600185901b17855562000232565b5f85815260208120601f198616915b828110156200020857888601518255948401946001909101908401620001e7565b50858210156200022657878501515f19600388901b60f8161c191681555b505060018460011b0185555b505050505050565b6119b280620002485f395ff3fe608060405234801561000f575f80fd5b5060043610610110575f3560e01c8063785cc9971161009e578063cd53d08e1161006e578063cd53d08e14610267578063e985e9c51461028f578063f242432a146102a2578063f2fde38b146102b5578063f5298aca146102c8575f80fd5b8063785cc997146101fd5780638da5cb5b14610210578063a22cb46514610235578063bd85b03914610248575f80fd5b80632eb2c2d6116100e45780632eb2c2d6146101af5780634e1273f4146101c457806356189236146101e4578063617d1126146101ec578063715018a6146101f5575f80fd5b8062fdd58e1461011457806301ffc9a71461013a5780630e89341c1461015d5780632a55205a1461017d575b5f80fd5b61012761012236600461112e565b6102db565b6040519081526020015b60405180910390f35b61014d61014836600461116b565b610302565b6040519015158152602001610131565b61017061016b36600461118d565b61030c565b60405161013191906111e7565b61019061018b3660046111f9565b610412565b604080516001600160a01b039093168352602083019190915201610131565b6101c26101bd366004611360565b610495565b005b6101d76101d2366004611403565b6104b4565b60405161013191906114f7565b600654610127565b6101276103e881565b6101c261057f565b61012761020b366004611509565b610592565b6005546001600160a01b03165b6040516001600160a01b039091168152602001610131565b6101c2610243366004611587565b6106d2565b61012761025636600461118d565b60086020525f908152604090205481565b61021d61027536600461118d565b60076020525f90815260409020546001600160a01b031681565b61014d61029d3660046115c0565b6106e1565b6101c26102b03660046115f1565b61070e565b6101c26102c3366004611651565b610724565b6101c26102d636600461166a565b610761565b5f818152602081815260408083206001600160a01b03861684529091529020545b92915050565b5f6102fc826108ec565b5f818152600760205260409020546060906001600160a01b03166103775760405162461bcd60e51b815260206004820152601f60248201527f55524920717565727920666f72206e6f6e6578697374656e7420746f6b656e0060448201526064015b60405180910390fd5b5f828152600960205260409020805461038f9061169a565b80601f01602080910402602001604051908101604052809291908181526020018280546103bb9061169a565b80156104065780601f106103dd57610100808354040283529160200191610406565b820191905f5260205f20905b8154815290600101906020018083116103e957829003601f168201915b50505050509050919050565b5f82815260046020526040812080548291906001600160a01b03811690600160a01b90046001600160601b0316816104655750506003546001600160a01b03811690600160a01b90046001600160601b03165b5f61271061047c6001600160601b038416896116e6565b61048691906116fd565b92989297509195505050505050565b6104a0335b86610910565b6104ad858585858561096a565b5050505050565b606081518351146104e55781518351604051635b05999160e01b81526004810192909252602482015260440161036e565b5f835167ffffffffffffffff81111561050057610500611219565b604051908082528060200260200182016040528015610529578160200160208202803683370190505b5090505f5b845181101561057757602080820286010151610552906020808402870101516102db565b8282815181106105645761056461171c565b602090810291909101015260010161052e565b509392505050565b6105876109ca565b6105905f6109f7565b565b5f80841180156105a457506103e88411155b6105e15760405162461bcd60e51b815260206004820152600e60248201526d125b9d985b1a5908185b5bdd5b9d60921b604482015260640161036e565b5f8351116106275760405162461bcd60e51b81526020600482015260136024820152725552492063616e6e6f7420626520656d70747960681b604482015260640161036e565b60068054905f61063683611730565b90915550506006545f81815260076020908152604080832080546001600160a01b0319163317905560088252808320889055600990915290206106798582611791565b5061068633828786610a48565b336001600160a01b0316817f39b7e999ccbd09163c9670c3a8b98edb70e0ccfc3e2d25097226b976865d28e387876040516106c292919061184d565b60405180910390a3949350505050565b6106dd338383610aac565b5050565b6001600160a01b039182165f90815260016020908152604080832093909416825291909152205460ff1690565b6107173361049a565b6104ad8585858585610b61565b61072c6109ca565b6001600160a01b03811661075557604051631e4fbdf760e01b81525f600482015260240161036e565b61075e816109f7565b50565b5f828152600760205260409020546001600160a01b03166107bb5760405162461bcd60e51b8152602060048201526014602482015273151bdad95b88191bd95cc81b9bdd08195e1a5cdd60621b604482015260640161036e565b6001600160a01b0383163314806107d757506107d783336106e1565b61081c5760405162461bcd60e51b8152602060048201526016602482015275139bdd081bdddb995c881b9bdc88185c1c1c9bdd995960521b604482015260640161036e565b8061082784846102db565b10156108755760405162461bcd60e51b815260206004820152601b60248201527f4275726e20616d6f756e7420657863656564732062616c616e63650000000000604482015260640161036e565b5f828152600860205260408120805483929061089290849061186d565b909155506108a39050838383610bee565b826001600160a01b0316827ff910273ca86bd31366d8b43474e80042994fa5c51c8b47511272bd2111853ba6836040516108df91815260200190565b60405180910390a3505050565b5f6001600160e01b0319821663152a902d60e11b14806102fc57506102fc82610c55565b816001600160a01b0316816001600160a01b031614158015610939575061093781836106e1565b155b156106dd5760405163711bec9160e11b81526001600160a01b0380841660048301528216602482015260440161036e565b6001600160a01b03841661099357604051632bfa23e760e11b81525f600482015260240161036e565b6001600160a01b0385166109bb57604051626a0d4560e21b81525f600482015260240161036e565b6104ad85858585856001610ca4565b6005546001600160a01b031633146105905760405163118cdaa760e01b815233600482015260240161036e565b600580546001600160a01b038381166001600160a01b0319831681179093556040519116919082907f8be0079c531659141344cd1fd0a4f28419497f9722a3daafe3b4186f6b6457e0905f90a35050565b6001600160a01b038416610a7157604051632bfa23e760e11b81525f600482015260240161036e565b60408051600180825260208201869052818301908152606082018590526080820190925290610aa45f8784848784610ca4565b505050505050565b6001600160a01b038316610ad557604051631f18c42760e11b81525f600482015260240161036e565b6001600160a01b038216610afd5760405162ced3e160e81b81525f600482015260240161036e565b6001600160a01b038381165f81815260016020908152604080832094871680845294825291829020805460ff191686151590811790915591519182527f17307eab39ab6107e8899845ad3d59bd9653f200f220920489ca2b5937696c3191016108df565b6001600160a01b038416610b8a57604051632bfa23e760e11b81525f600482015260240161036e565b6001600160a01b038516610bb257604051626a0d4560e21b81525f600482015260240161036e565b60408051600180825260208201869052818301908152606082018590526080820190925290610be587878484875f610ca4565b50505050505050565b6001600160a01b038316610c1657604051626a0d4560e21b81525f600482015260240161036e565b604080516001808252602082018590528183019081526060820184905260a082019092525f608082018181529192916104ad9187918590859083610ca4565b5f6001600160e01b03198216636cdb3d1360e11b1480610c8557506001600160e01b031982166303a24d0760e21b145b806102fc57506301ffc9a760e01b6001600160e01b03198316146102fc565b610cb086868686610cfc565b6001600160a01b03851615610aa457338115610cd957610cd4818888888888610f0b565b610be5565b60208581015190850151610cf1838a8a85858a61102c565b505050505050505050565b8051825114610d2b5781518151604051635b05999160e01b81526004810192909252602482015260440161036e565b335f5b8351811015610e2d576020818102858101820151908501909101516001600160a01b03881615610ddf575f828152602081815260408083206001600160a01b038c16845290915290205481811015610db9576040516303dee4c560e01b81526001600160a01b038a16600482015260248101829052604481018390526064810184905260840161036e565b5f838152602081815260408083206001600160a01b038d16845290915290209082900390555b6001600160a01b03871615610e23575f828152602081815260408083206001600160a01b038b16845290915281208054839290610e1d908490611880565b90915550505b5050600101610d2e565b508251600103610ead5760208301515f906020840151909150856001600160a01b0316876001600160a01b0316846001600160a01b03167fc3d58168c5ae7397731d063d5bbf3d657854427343f4c083240f7aacaa2d0f628585604051610e9e929190918252602082015260400190565b60405180910390a450506104ad565b836001600160a01b0316856001600160a01b0316826001600160a01b03167f4a39dc06d4c0dbc64b70af90fd698a233a518aa5d07e595d983b8c0526c8f7fb8686604051610efc929190611893565b60405180910390a45050505050565b6001600160a01b0384163b15610aa45760405163bc197c8160e01b81526001600160a01b0385169063bc197c8190610f4f90899089908890889088906004016118c0565b6020604051808303815f875af1925050508015610f89575060408051601f3d908101601f19168201909252610f869181019061191d565b60015b610ff0573d808015610fb6576040519150601f19603f3d011682016040523d82523d5f602084013e610fbb565b606091505b5080515f03610fe857604051632bfa23e760e11b81526001600160a01b038616600482015260240161036e565b805160208201fd5b6001600160e01b0319811663bc197c8160e01b14610be557604051632bfa23e760e11b81526001600160a01b038616600482015260240161036e565b6001600160a01b0384163b15610aa45760405163f23a6e6160e01b81526001600160a01b0385169063f23a6e61906110709089908990889088908890600401611938565b6020604051808303815f875af19250505080156110aa575060408051601f3d908101601f191682019092526110a79181019061191d565b60015b6110d7573d808015610fb6576040519150601f19603f3d011682016040523d82523d5f602084013e610fbb565b6001600160e01b0319811663f23a6e6160e01b14610be557604051632bfa23e760e11b81526001600160a01b038616600482015260240161036e565b80356001600160a01b0381168114611129575f80fd5b919050565b5f806040838503121561113f575f80fd5b61114883611113565b946020939093013593505050565b6001600160e01b03198116811461075e575f80fd5b5f6020828403121561117b575f80fd5b813561118681611156565b9392505050565b5f6020828403121561119d575f80fd5b5035919050565b5f81518084525f5b818110156111c8576020818501810151868301820152016111ac565b505f602082860101526020601f19601f83011685010191505092915050565b602081525f61118660208301846111a4565b5f806040838503121561120a575f80fd5b50508035926020909101359150565b634e487b7160e01b5f52604160045260245ffd5b604051601f8201601f1916810167ffffffffffffffff8111828210171561125657611256611219565b604052919050565b5f67ffffffffffffffff82111561127757611277611219565b5060051b60200190565b5f82601f830112611290575f80fd5b813560206112a56112a08361125e565b61122d565b8083825260208201915060208460051b8701019350868411156112c6575f80fd5b602086015b848110156112e257803583529183019183016112cb565b509695505050505050565b5f67ffffffffffffffff83111561130657611306611219565b611319601f8401601f191660200161122d565b905082815283838301111561132c575f80fd5b828260208301375f602084830101529392505050565b5f82601f830112611351575f80fd5b611186838335602085016112ed565b5f805f805f60a08688031215611374575f80fd5b61137d86611113565b945061138b60208701611113565b9350604086013567ffffffffffffffff808211156113a7575f80fd5b6113b389838a01611281565b945060608801359150808211156113c8575f80fd5b6113d489838a01611281565b935060808801359150808211156113e9575f80fd5b506113f688828901611342565b9150509295509295909350565b5f8060408385031215611414575f80fd5b823567ffffffffffffffff8082111561142b575f80fd5b818501915085601f83011261143e575f80fd5b8135602061144e6112a08361125e565b82815260059290921b8401810191818101908984111561146c575f80fd5b948201945b838610156114915761148286611113565b82529482019490820190611471565b965050860135925050808211156114a6575f80fd5b506114b385828601611281565b9150509250929050565b5f815180845260208085019450602084015f5b838110156114ec578151875295820195908201906001016114d0565b509495945050505050565b602081525f61118660208301846114bd565b5f805f6060848603121561151b575f80fd5b83359250602084013567ffffffffffffffff80821115611539575f80fd5b818601915086601f83011261154c575f80fd5b61155b878335602085016112ed565b93506040860135915080821115611570575f80fd5b5061157d86828701611342565b9150509250925092565b5f8060408385031215611598575f80fd5b6115a183611113565b9150602083013580151581146115b5575f80fd5b809150509250929050565b5f80604083850312156115d1575f80fd5b6115da83611113565b91506115e860208401611113565b90509250929050565b5f805f805f60a08688031215611605575f80fd5b61160e86611113565b945061161c60208701611113565b93506040860135925060608601359150608086013567ffffffffffffffff811115611645575f80fd5b6113f688828901611342565b5f60208284031215611661575f80fd5b61118682611113565b5f805f6060848603121561167c575f80fd5b61168584611113565b95602085013595506040909401359392505050565b600181811c908216806116ae57607f821691505b6020821081036116cc57634e487b7160e01b5f52602260045260245ffd5b50919050565b634e487b7160e01b5f52601160045260245ffd5b80820281158282048414176102fc576102fc6116d2565b5f8261171757634e487b7160e01b5f52601260045260245ffd5b500490565b634e487b7160e01b5f52603260045260245ffd5b5f60018201611741576117416116d2565b5060010190565b601f82111561178c57805f5260205f20601f840160051c8101602085101561176d5750805b601f840160051c820191505b818110156104ad575f8155600101611779565b505050565b815167ffffffffffffffff8111156117ab576117ab611219565b6117bf816117b9845461169a565b84611748565b602080601f8311600181146117f2575f84156117db5750858301515b5f19600386901b1c1916600185901b178555610aa4565b5f85815260208120601f198616915b8281101561182057888601518255948401946001909101908401611801565b508582101561183d57878501515f19600388901b60f8161c191681555b5050505050600190811b01905550565b828152604060208201525f61186560408301846111a4565b949350505050565b818103818111156102fc576102fc6116d2565b808201808211156102fc576102fc6116d2565b604081525f6118a560408301856114bd565b82810360208401526118b781856114bd565b95945050505050565b6001600160a01b0386811682528516602082015260a0604082018190525f906118eb908301866114bd565b82810360608401526118fd81866114bd565b9050828103608084015261191181856111a4565b98975050505050505050565b5f6020828403121561192d575f80fd5b815161118681611156565b6001600160a01b03868116825285166020820152604081018490526060810183905260a0608082018190525f90611971908301846111a4565b97965050505050505056fea26469706673582212205da815ae87af99079cfe11e5f4525d3e7ae247f78640b98eea7585a190584b2c64736f6c63430008180033",
  "linkReferences": {},
  "deployedLinkReferences": {}
}